:100000000C942A000C943F000C943F000C943F0089
:100010000C943F000C943F000C943F000C943F0064
:100020000C943F000C943F000C943F000C943F0054
:100030000C943F000C943F000C943F000C943F0044
:100040000C943F000C943F000C943F000C943F0034
:100050000C943F0011241FBECFE5D8E0DEBFCDBF1A
:1000600010E0A0E6B0E0E6EDF9E002C005900D92E8
:10007000A437B107D9F70E946B010C94E9040C94E2
:10008000000017B887E886B9089597B18770987F00
:10009000892B87B9369A3699FECF24B135B1C9017B
:1000A0000895662311F0DC9A01C0DC98DD98A49ACB
:1000B000A59AA69AA79AAF98AE98AD98AC9887FDE6
:1000C000AF9A86FDAE9A85FDAD9A84FDAC9ADE9A14
:1000D00000C0DE98AF98AE98AD98AC9883FDAF9A0B
:1000E00082FDAE9A81FDAD9A80FDAC9ADE9A00C089
:1000F000DE98AC9AAD9AAE9AAF9A089580E097E2F6
:100100000197F1F784E090E00197F1F7DC98DD9A30
:10011000A498A598A698A798DE9A00C09C9B02C0B8
:1001200080E101C080E09D9980629E9980649F99E2
:100130008068DE9800C0DE9A00C09C9981609D991D
:1001400082609E9984609F998860DE9808951F93CD
:10015000182F0E947E00812F60E00E9451001F91A5
:1001600008951F93182F0E947E00812F61E00E9446
:1001700051001F910895662311F4805801C08054E6
:100180000E94A70008950E947E0090E0089581E0FB
:100190000E94A700089582E00E94A70008951F937F
:1001A000182F0E947E001A3049F4803410F080E04D
:1001B00001C080E480580E94A70004C0812F61E044
:1001C0000E9451001F910895CF93DF93EC0102C06C
:1001D0000E94CF0089918823D9F7DF91CF910895AC
:1001E000CF93DF93EC0102C00E94CF00FE01219665
:1001F00084918823C9F7DF91CF910895CF93DF933E
:10020000EC0102C00E94CF00FE0121968491882358
:10021000C9F7DF91CF910895D49AD59AD69AA49A26
:10022000A59AA69AA79A80E09DE70197F1F7AD9A63
:10023000AC9ADE9A00C0DE9880E097E20197F1F771
:10024000DE9A00C0DE9880E890E0FC013197F1F77B
:10025000DE9A00C0DE98FC013197F1F7AC98DE9A87
:1002600000C0DE980197F1F788E20E94A70088E0BD
:100270000E94A7000E94C70086E00E94A7008CE0B1
:100280000E94A700089589E683BFBB9A08958CBF9A
:1002900008950F931F93DF93CF93CDB7DEB72797C2
:1002A0000FB6F894DEBF0FBECDBF8E010F5F1F4F9C
:1002B000A8012AE030E00E947B04C8010E94E4000B
:1002C00027960FB6F894DEBF0FBECDBFCF91DF915A
:1002D0001F910F910895FF920F931F93CF93DF9378
:1002E00017B887E886B90E940C0189E683BFBB9ADC
:1002F00084EBF82E00E911E080E00E944500EC015B
:1003000081E0C931D807B4F1FCBE84E090E066E03A
:1003100070E041E050E00E94610284E090E067E01C
:1003200070E040E050E00E94610282E090E065E011
:1003300070E041E050E00E9461020E94C70080E04E
:1003400061E00E94BB00BE01882777FD8095982F51
:100350000E94490181E060E00E94BB0080E690E0DD
:100360000E94E40088E893E1F8013197F1F70197E2
:10037000D9F7C2CF81E0C831D80709F4BDCFFCBEA0
:1003800084E090E066E070E040E050E00E946102AE
:1003900084E090E067E070E040E050E00E9461029D
:1003A00082E090E065E070E040E050E00E94610291
:1003B0000E94C70080E061E00E94BB00BE01882768
:1003C00077FD8095982F0E94490181E060E00E94AE
:1003D000BB008AE690E00E94E40088E893E1F8011F
:1003E0003197F1F70197D9F787CF8230F9F0833051
:1003F00018F4813031F407C0833059F1843009F4A6
:1004000042C080E00895693019F41ABA89B308959A
:100410008AB321E030E0062E02C0220F331F0A9477
:10042000E2F7209528232ABB89B325C0693019F447
:1004300017BA86B3089587B321E030E0062E02C0D4
:10044000220F331F0A94E2F72095282327BB86B397
:1004500012C0693019F414BA83B3089584B321E04B
:1004600030E0062E02C0220F331F0A94E2F72095D7
:10047000282324BB83B390E002C0959587956A95A5
:10048000E2F781700895693019F411BA80B30895C4
:1004900031B381E090E0062E02C0880F991F0A94C4
:1004A000E2F7282F2095232321BB22B3822B82BB86
:1004B00080B390E002C0959587956A95E2F78170C8
:1004C0000895823009F441C0833020F4813009F06E
:1004D000D7C007C0833009F46CC0843009F0D0C0A5
:1004E0009CC06B3521F48FEF8ABB4BBB089544232E
:1004F00021F0413009F0C4C014C0693021F48FEFFD
:100500008ABB1BBA08958AB321E030E002C0220FF3
:10051000331F6A95E2F7822B8ABB8BB32095282381
:1005200012C0693021F48FEF8ABB8BBB08958AB368
:1005300021E030E002C0220F331F6A95E2F7822BE0
:100540008ABB8BB3282B2BBB08956B3521F48FEF1F
:1005500087BB48BB0895442321F0413009F090C087
:1005600014C0693021F48FEF87BB18BA089587B3A0
:1005700021E030E002C0220F331F6A95E2F7822BA0
:1005800087BB88B32095282312C0693021F48FEFF0
:1005900087BB88BB089587B321E030E002C0220FFB
:1005A000331F6A95E2F7822B87BB88B3282B28BBC1
:1005B00008956B3521F48FEF84BB45BB0895442328
:1005C00021F0413009F05CC014C0693021F48FEF94
:1005D00084BB15BA089584B321E030E002C0220F35
:1005E000331F6A95E2F7822B84BB85B320952823BD
:1005F00012C0693021F48FEF84BB85BB089584B3AA
:1006000021E030E002C0220F331F6A95E2F7822B0F
:1006100084BB85B3282B25BB08956B3521F48FEF60
:1006200081BB42BB0895442319F0413049F515C000
:10063000693021F48FEF81BB12BA089581B321E0B4
:1006400030E002C0220F331F6A95E2F7822B81BB94
:1006500082B32095282322BB0895693021F48FEFBF
:1006600081BB82BB089581B321E030E002C0220F3C
:10067000331F6A95E2F7822B81BB82B3282B22BB02
:100680000895833019F1843009F43CC0823009F0B8
:1006900054C0442321F0413009F04FC00CC027B3AF
:1006A00081E090E002C0880F991F6A95E2F780957B
:1006B000822387BB089527B381E090E002C0880FB2
:1006C000991F6A95E2F7282B27BB0895442319F058
:1006D000413099F50CC024B381E090E002C0880F4E
:1006E000991F6A95E2F78095822384BB089524B30D
:1006F00081E090E002C0880F991F6A95E2F7282BED
:1007000024BB0895442319F04130B9F40CC021B33F
:1007100081E090E002C0880F991F6A95E2F780950A
:10072000822381BB089521B381E090E002C0880F4D
:10073000991F6A95E2F7282B21BB0895882321F49D
:1007400081E067E040E004C0813041F467E041E0CF
:100750000E94610283E062E040E00AC0823059F406
:1007600081E067E040E00E94610283E062E041E0F6
:100770000E9461020895833051F481E067E041E016
:100780000E94610283E062E041E00E9461020895FC
:10079000EF92FF920F931F93CF93DF93EA010E9492
:1007A0006104009719F420E030E01DC0019660E775
:1007B00070E00E9461047C0183E090E0E80EF91E85
:1007C000C70162E270E00E942F048C010E191F091C
:1007D000CE01B701A8010E9452040C0F1D1FF801A1
:1007E000108221E030E0C901DF91CF911F910F917C
:1007F000FF90EF900895DB010D900020E9F711972D
:10080000A61BB70B4A2F50E00E943A0420E030E0CC
:10081000892B11F421E030E0C90108950E941104F0
:100820000895FC0188279927E89421912032E9F363
:10083000293010F02E30C8F32B3241F02D3239F42C
:10084000689404C00E94AF04820F911D219120532F
:100850002A30C0F31EF4909581959F4F0895FC01B6
:100860008191861721F08823D9F799270895319728
:10087000CF010895FB01DC014150504088F08D917B
:1008800081341CF08B350CF4805E619161341CF076
:100890006B350CF4605E861B611171F3990B089542
:1008A000881BFCCFFB01DC014150504048F0019017
:1008B0000D920020C9F701C01D9241505040E0F751
:1008C0000895FB0151915523A9F0BF01DC014D9121
:1008D00045174111E1F759F4CD010190002049F08D
:1008E0004D9140154111C9F3FB014111EFCF81E05A
:1008F00090E001970895FA01CF93FF93EF93223090
:1009000044F1253234F5C22FE894CA3049F497FBFC
:100910003EF490958095709561957F4F8F4F9F4FD6
:100920002C2F332744275527FF93EF930E94C704AA
:10093000EF91FF91605D6A330CF0695D6193B901DD
:10094000CA01605070408040904051F716F4CDE2EB
:10095000C19310828F919F91CF910C94B7047AE04C
:10096000979F902D879F802D910D11240895DC0174
:10097000FC01672F71917723E1F7329704C07C91D6
:100980006D9370836291AE17BF07C8F30895A1E21B
:100990001A2EAA1BBB1BFD010DC0AA1FBB1FEE1FF9
:1009A000FF1FA217B307E407F50720F0A21BB30B44
:1009B000E40BF50B661F771F881F991F1A9469F7C0
:1009C00060957095809590959B01AC01BD01CF011C
:0609D0000895F894FFCF2A
:1009D60057617465725F726571004D6F697374005B
:0409E600223A0000B1
:00000001FF
